:020000040000FA
:1000000068080020250200006502000009020000C7
:10001000690200006B0200006D0200000000000099
:100020000000000000000000000000006F0200005F
:10003000710200000000000073020000AD16000015
:1000400077020000770200007702000077020000CC
:1000500077020000770200007702000077020000BC
:1000600077020000770200007702000077020000AC
:10007000770200007702000077020000770200009C
:10008000770200007702000077020000770200008C
:10009000770200007702000077020000770200007C
:1000A000770200007702000077020000770200006C
:1000B000770200007702000077020000770200005C
:1000C00077020000C11800007702000077020000EC
:1000D000011900007702000077020000770200009B
:1000E000770200007702000077020000770200002C
:1000F000770200007702000077020000770200001C
:10010000770200007702000077020000770200000B
:1001100077020000770200007702000077020000FB
:1001200085030000770200007702000077020000DC
:1001300077020000770200007702000077020000DB
:1001400077020000770200007702000077020000CB
:1001500077020000770200007702000077020000BB
:1001600077020000770200007702000077020000AB
:10017000770200007702000077020000770200009B
:10018000770200007702000077020000770200008B
:10019000770200007702000077020000770200007B
:1001A000770200007702000077020000770200006B
:1001B000770200007702000077020000770200005B
:1001C000770200007702000077020000770200004B
:1001D000770200007702000077020000770200003B
:1001E000770200007702000077020000770200002B
:1001F00077020000DFF80CD000F0B2F800480047AA
:10020000C12400006808002004207146084202D082
:10021000EFF3098001E0EFF308807146004A1047D0
:100220000514000014484FF0590101604FF0160109
:1002300001604FF0880101601048416841F480413D
:1002400041600F48416841F002014160416841F05E
:10025000040141600B48804707484FF000010160EE
:1002600009480047FEE7FEE7FEE7FEE7FEE7FEE798
:10027000FEE7FEE7FEE7FEE7000100400002004067
:100280000070004069170000F50100002DE9F05FE3
:100290000546002092469B468846064681464024F5
:1002A0001BE0284641464746224600F048F85346A0
:1002B0005A46C01A914110D311461846224600F002
:1002C0002FF82D1A67EB01084F4622460120002126
:1002D00000F026F817EB00094E41201EA4F101049E
:1002E000DFDC484631462A464346BDE8F09F40EAF7
:1002F00001039B0703D009E008C9121F08C0042AA4
:10030000FAD203E011F8013B00F8013B521EF9D28A
:100310007047421C10F8011B0029FBD1801A70475E
:10032000202A04DB203A00FA02F1002070479140B5
:10033000C2F1200320FA03F3194390407047202AAA
:1003400004DB203A21FA02F00021704721FA02F37F
:10035000D040C2F120029140084319467047000086
:10036000064C074D06E0E06840F0010394E8070002
:1003700098471034AC42F6D3FFF740FF3C2600000C
:100380005C260000014800F0C1B8000000000A40EF
:1003900010B5D0F8983001221B0401D400223AE0B5
:1003A000436823F0100343603323C0F88430D0F84F
:1003B00094305B0406D400230B60D0F89430C3F370
:1003C0008A0309E001230B60D0F89430DB04DB08DA
:1003D0008B60D0F8904023438B6050F8943F43F3F8
:1003E00040335B1C4B60436803F00F030B7383685F
:1003F0004B7383681B0A8B73C368CB73C3681B0A78
:100400000B7403694B7403691B0A8B744369CB74C7
:100410004069000A0875104610BD000030B52A4C2E
:1004200000220123246805E0521CA24202D94FF0A9
:10043000FF3030BD056A2D04F6D4426822F0080270
:1004400042600A687AB10A8992B202638A68C2F38A
:100450000C4242F4804242634A68002A426B08D050
:1004600042F4005207E0002202630A895205D20CCE
:10047000F1E722F400524263826B0C7B22F00F0200
:100480002243826331F80D2FC2634A8802648A884E
:100490004264C9888164016A21F400410162016AF1
:1004A00009040DD4016A41F400410162074A0021A8
:1004B000046A240402D5491C9142F9D3914200D325
:1004C0000023184630BD000000000020FFFF0F0091
:1004D00070B50C46054600F0E5FF0146022800D144
:1004E000002101EB410005EB40100C224262641C2C
:1004F00004622846BDE8704001F01EB8026801F0B1
:100500000E0122F00E020A430260704770B50569C1
:100510000446B5F5004F0BD0002D37D0294600F02A
:1005200087F86D1EE9B22046BDE87040FFF7D0BFE6
:100530006068C0060AD5606820F01000606019A0ED
:1005400001F09AFB1A488169C900FCD56068000770
:1005500006D5606820F00800606016A001F08CFBF2
:100560006068400602D516A001F086FB60680006B0
:100570000BD516A001F080FB41202060206820F000
:10058000410020602068C007FCD170BDD4F86C0128
:100590000128FAD110A001F06FFB0020C4F86C0113
:1005A00070BD00005258204F4B20494E540A0000A5
:1005B000000007405458204F4B20494E540A000079
:1005C000455741524E20494E540A0000424F46467C
:1005D00020494E540A00000057616B652075700A6F
:1005E0000000000000220249024800F031B800007B
:1005F00020A1070000000A400122102902D2D0F8F1
:10060000200102E0D0F8240110398A4010407047E0
:1006100006490268096822F04102026002E00029EE
:1006200003D0491E0268D207F9D1704700000020AC
:1006300010B5202908D8054A491E00F07DF8BDE80C
:100640001040024800F074BA10BD000050000020B5
:1006500070B51546044600F083F8012D05D12268D7
:10066000042142F080022260616170BD2DE9F047F3
:10067000074630481C4690460068894645000126DA
:100680003846FFF7B9FFC0B1384600F00BFF01460E
:10069000022812D0786820F0100078605FEA080025
:1006A00000D0042040F07B0201EB410007EB40103A
:1006B000426209F10102026203E0002638E065B1FE
:1006C0006D1E026A1204FAD4426B52040CD400224A
:1006D0002260426BC2F38A020EE0384600F02CFF23
:1006E0004FF0FF30BDE8F08701222260026B436BC0
:1006F000C3F30C0342EA0342A260826B02F00F02D2
:100700002273C26B6273C26B120AA273026CE27331
:10071000026C120A2274426C6274426C120AA27455
:10072000826CE274806C000A2075384600F004FF89
:100730003046D7E70000002030B40C46416903681A
:1007400001F004011B0604D519B130BC1146FFF7B6
:100750001FBEE1B2134630BC0122FFF787BF000085
:100760002DE9F04F89B080465C480790002000904A
:100770000490029003900E464FF47A7001244121B8
:10078000069000252746C8F8001000F0C9FF544A1B
:100790004FF001095003904502D0524A904504D1D0
:1007A000D0F8340200F0070006E04F4A904506D129
:1007B000D0F83402C0F3021009FA00F4E5174B48F0
:1007C00022462B4600680021FFF760FD824648481C
:1007D0008B46864201D3064602E04648864202D94D
:1007E00040F2EE2007E04448864202D94FF44870B8
:1007F00001E040F26B3031240190012000EB5409FC
:1008000009FB06F2002350465946FFF73FFD04EB73
:10081000D471059121F00101611A4518A5F101007B
:10082000B0F5806F22D205FB09F2D3175046594626
:10083000FFF72CFD301A00D540420799884215DC9D
:10084000079070B9059803AB411002AA019801F016
:1008500064FC0199081A00D540420699884205DCDB
:100860000690059904954910009110B1641E062C5C
:10087000C3D2DDE9001003AB02AA01F04EFC042F45
:1008800000D90427039CBC4200D22746029D04984D
:100890002A19521C4243D31750465946FFF7F6FC1B
:1008A000034620036FF0FF0101EB0521A0F5805006
:1008B00008430499491E01F03F02104340EA8712A1
:1008C0004046C8F80C20C1F38311C8F81810FFF790
:1008D0009FFE09B01846BDE8F08F000000CA9A3BA1
:1008E00000000A4000200A4000100A4000000020DA
:1008F00040420F0000350C0020A107002DE9F84F01
:1009000001259A4616460F46834600244FF080592B
:10091000A84604E0641C4C4501D3002509E0F2B26E
:10092000F9B253465846CDF8008000F005F800288B
:10093000F0D02846BDE8F88F2DE9F0471C46174651
:100940000E4680460125DDF8209000F0ABFD014603
:10095000022818D001EB410308EB4310F322426256
:10096000002297B1A3B20363C4F30C4343F44043A2
:1009700043634FF4A0538363836BB9F1000F0CD032
:1009800043F080030BE0002513E00263C4F30A0385
:100990004FF4004444EA8303EAE723F080038363CF
:1009A000C263026442648264761C0662404600F0C0
:1009B000C3FD2846BDE8F0872DE9F0471C461746E1
:1009C0000E4680460125DDF8209000F06BFD0146C3
:1009D00002281CD001EB410308EB4310F3224262D2
:1009E0000022B7B1A3B20363C4F30C4343F4404302
:1009F0004363436B43F4005343634FF4A053836357
:100A0000836BB9F1000F0CD043F080030BE000259D
:100A100013E00263C4F30A034FF4004444EA83037F
:100A2000E6E723F080038363C26302644264826466
:100A3000761C0662404600F07FFD2846BDE8F08740
:100A40002DE9F84F01259A4616460F4683460024A5
:100A50004FF08059A84604E0641C4C4501D30025A2
:100A600009E0F2B2F9B253465846CDF80080FFF7DC
:100A7000A3FF0028F0D02846BDE8F88F2DE9F0410B
:100A800014460E460746012500F00CFD01460228DB
:100A900017D001EB410007EB4010F32242622268BD
:100AA0008AB1228992B20263A268C2F30C4242F474
:100AB000604242636268002A426B0ED042F40052E8
:100AC0000DE0002520E00022026322894FF420433C
:100AD000C2F30A0243EA8202EBE722F400524263C5
:100AE00034F80D2FC26362880264A2884264E288EF
:100AF000826414F8012C48F680031A438263761C42
:100B00000662384600F018FD2846BDE8F081000076
:100B100010B5064C204600F01FFB204600F0AEFB4F
:100B20002046BDE8104000F059BB000000000A401C
:100B300070B5054617488169C900FCD51648C168DB
:100B40004A1CC26015A001F097F817A0A96801F02F
:100B500093F82A680AB118A100E018A118A001F0C2
:100B60008BF8297B1BA001F087F81EA001F084F808
:100B7000002406E02819417B1DA001F07DF8641CCB
:100B8000E4B2287BA042F5D8BDE870401BA001F07C
:100B900073B80000000007403C000020636E742022
:100BA0003D25642C000000004D736749445B30789C
:100BB000253034585D00000045585400535444001B
:100BC000547970653D257328307825303258292CAA
:100BD000000000006C656E6774683D307825303227
:100BE000580D0A00446174612069733A20000000C6
:100BF000307825303258202C000000000D0A00000B
:100C000070B5054640690E460124296800F00400CD
:100C1000090607D530B111462846FFF7FFFB04004F
:100C20000BD408E031462846FFF728FF28B13146AB
:100C3000284600F005F8204670BD0024FBE70000C0
:100C40002DE9F041054616480F460126046828465E
:100C500000F028FC014602280CD0686820F008004B
:100C6000686001EB410005EB40100C2242627F1CE2
:100C7000076203E000260AE064B1641E026A1204FF
:100C8000FAD4842242620762284600F055FC3046BE
:100C9000BDE8F081284600F04FFC4FF0FF30F7E749
:100CA000000000204FF08040D0F8401241F4803125
:100CB000C0F840127047000000F01F02012191406F
:100CC000034A800F02EB800002680A43026070470B
:100CD000040200402DE9F84F0D460446FFF7E2FFFD
:100CE0004FF08040484ED0F80012C4B141F00401EA
:100CF000C0F80012102000F011FA4FF4002000900C
:100D0000424843492844B34688426DD84FF0000911
:100D10004FF0FF324F464E46AE46012015E041F0FF
:100D20000101C0F80012012000F0F8F90020E6E708
:100D3000F2B3032839D0042802D0022805D102E0FA
:100D40004FEA8E0501E04FEA4E0502236AB3BBFB72
:100D5000F3F1304CDFF8BCC00C44CCF1000C64451E
:100D600020D80224C1F35D0ADFF8A0C00AFB04F119
:100D700001EB0C08DFF8A0C0E0450ED8B1EB950FF1
:100D800002D9A1EB950101E0C1EB9501914204D29A
:100D90000A0099462746064604D040F20121641C09
:100DA0008C42E1D95B1C202BD0D9401C042800E0E8
:100DB00000E0BDD91948009900EB8630184A084375
:100DC00002EB49210843B91E08434FF08041C1F8A6
:100DD0004002042000F0A2F906FB09F6BBFBF6F086
:100DE00078434000BDE8F88F5CB10E494FF0804079
:100DF000C0F84012042000F091F9BDE8F84F00F06F
:100E0000A7B844F21E21F1E7001BB700800F05FDD3
:100E10008074D21A00F7C2FFC068780400C0FFFFD8
:100E200000FEFFFF1E4208004FF08041D1F8002273
:100E30000243C1F80022704710B500F071FC014870
:100E4000006810BD0000002010B500F069FC0148EA
:100E5000006810BD000000204FF08040D0F8000274
:100E6000C00700D000487047001BB7004FF080401B
:100E7000D0F80002800702D54FF4004070470020F0
:100E80007047000010B500F04BFC4FF08041D1F8E6
:100E900034024207134817D0D1F8342202F0070277
:100EA000012A13D0D1F8342202F00702022A10D00E
:100EB000D1F8342202F00702032A0DD0D1F83412FF
:100EC00001F0070104290AD0006810BD006840083D
:100ED00010BD0068800810BD0068C00810BD006823
:100EE000000910BD0000002010B500F019FC4FF003
:100EF0008041D1F8340210F0700F144817D0D1F8A7
:100F00003422C2F30212012A13D0D1F83422C2F3E0
:100F10000212022A10D0D1F83422C2F30212032A9C
:100F20000DD0D1F83412C1F3021104290AD000689F
:100F300010BD0068400810BD0068800810BD006842
:100F4000C00810BD0068000910BD000000000020AE
:100F500008B510A10020096800914FF08041D1F838
:100F6000401211F4A02F13D10B488A0310D4C1F3FF
:100F70000800C1F38132094B801C1DF80220C1F327
:100F800044215843491C11FB02F1B0FBF1F0C000B1
:100F900008BD000001020204001BB700C0C62D00FE
:100FA00070B54FF080440646D4F8500200F01005AA
:100FB0001B48864200D90646D4F8000240F00400DF
:100FC000C4F80002102004F5007400F0A7F82069AE
:100FD00040F007002061206A20F00F0020622068A6
:100FE000A4F50074C007314604D00020FFF772FE5C
:100FF000064608E04FF40020FFF76CFE0646D4F8E2
:10100000500200F010050021022000F00BF82DB96D
:10101000D4F8000220F00400C4F80002304670BD8D
:1010200000B0710B2DE9F0414FF080440746D4F831
:1010300050020E4600F01005D4F8000240F0040003
:10104000C4F80002102004F5007400F067F820696D
:1010500040F007002061206A20F00F00304320623A
:10106000206920F0070038432061A4F5007400F0E7
:1010700057FB002D05D1D4F8000220F00400C4F87D
:101080000002BDE8F0810000F0B510F47F3F2ED0E3
:101090004FF08043D3F8F431DFF878C0DFB21D4B56
:1010A000C0F381440C3B6FEA90450CF1040603EB5E
:1010B0008403012F02D0022C0DD001E0022C02D0BB
:1010C000AC070AD00AE0C343DC06134B06D000F09D
:1010D0001F041D2C02D0634600E033461C68C0F399
:1010E0008725C0F34416B540AC4314431C60420E40
:1010F00052070ED0084BC0F30172183B03EB82027B
:101100001368C0F34264C0F304508440A3430B430C
:101110001360F0BD2C0200402802004070B5054667
:101120000B480C4E0124006841080020A2073060E3
:1011300001E0491E06D0D2F8503235EA0300F8D15A
:1011400009B103E000244FF0FF303060204670BD4D
:10115000000000203000002010B5044640F201439A
:1011600000221021FFF7CAFB20B34FF204530122E3
:1011700011212046FFF7C2FBE0B140F201630022DB
:1011800012212046FFF75CFCA0B14FF6EE230122AE
:1011900013212046FFF754FC60B106212046FFF7DB
:1011A000ADF90021382000F096F9BDE81040382054
:1011B00000F086B9BDE8104001A000F05DBD000060
:1011C000536574205278204D7367204F626A6563BF
:1011D00074206661696C65640A00000030B50546DC
:1011E00087B0174917A000F047FD002440F20150D6
:1011F0000290019400948DF80C406A461421284610
:10120000FFF7FEFCB8B10120CDE900044FF6EE0077
:1012100002908DF80C406A4615212846FFF7F0FC35
:1012200048B10B488169C900FCD5054909A000F007
:1012300023FD07B030BD0AA000F01EFDF9E7000055
:101240001426000025732073746172740D0A000067
:1012500000000740257320656E640D0A0000000041
:10126000536574205478204D7367204F626A65631C
:1012700074206661696C65640A00000070B50546FB
:101280002DA088B0D0E90010CDE906102C492DA082
:1012900000F0F2FC01260020CDE9000640F201300A
:1012A000029006A8FFF735F88DF80C00002106A87B
:1012B0006C46425C6318491C5A730529F9D39DF8A2
:1012C0001100224640008DF8110016212846FFF734
:1012D00097FC68B34FF202500290082001960096E6
:1012E0008DF80C00002101F170006218491C507348
:1012F0000829F8D3164C9DF8140021780844C1B28F
:101300008DF8141013A000F0B7FC6A461721284688
:10131000FFF776FC60B113488169C900FCD5084924
:1013200011A000F0A9FC2078401C207008B070BD0E
:1013300010A000F0A1FCF9E7303132333400000096
:101340003126000025732073746172740D0A000049
:101350003C0000206865783A3078253032580D0A14
:101360000000000000000740257320656E640D0A30
:1013700000000000536574205478204D7367204F9F
:10138000626A656374206661696C65640A000000C6
:1013900010B54FF08040816E21F00F018166816EA3
:1013A00021F0F0018166816E21F470618166094C43
:1013B00001221146204600F00FF8012202212046AA
:1013C00000F00AF820460122BDE81040042100F098
:1013D00003B80000C0410040F0B5002301270325F9
:1013E00007FA03F48C4309D106685C0005FA04FC93
:1013F00026EA0C0602FA04F4264306605B1C102B56
:10140000EED3F0BD044603A000F036FC204601F008
:101410006FF8FEE7496E2048617264204661756C82
:10142000742048616E646C65720A000070B5194AD8
:10143000904201D1002108E0174A904201D10121D8
:1014400003E0164A904200D1022103680222046898
:1014500003F00E0324F00E040460046A4FF001054B
:1014600026040F4C02D414F8116046B1D0F8806005
:1014700036040AD404EB41014C7824B105E004F8A9
:101480001150002201E04D700122016819430160F2
:10149000104670BD00000A4000100A4000200A40BB
:1014A0003400002070B5064600244FF080553046C9
:1014B000FFF7BCFF022802D1641CAC42F7D370BD19
:1014C00000F01F02012191404009800000F1E0205E
:1014D000C0F8001170470907090E002806DA00F06D
:1014E0000F0000F1E02080F8141D704700F1E020AB
:1014F00080F80014704700000E4910B50020086005
:10150000091D08604FF08040016B21F47061016398
:10151000016B21F4704101634FF04024012204214A
:101520002046FFF759FF20460122BDE81040082160
:10153000FFF752BF0848004030B502291CD20F4BBC
:10154000984201D1002208E00D4B984201D10122BE
:1015500003E00C4B984200D102220368046803F0B8
:101560000E0324F00E040460074D002405EB420234
:10157000545401681943016030BD000000000A4066
:1015800000100A4000200A40340000204FF0804143
:101590004A6802434A6070474FF080404068704795
:1015A00070B500F063F84FF04020D0F8401121F002
:1015B000F001C0F840110420FFF736FC1020FFF7BF
:1015C000ADFD0120FFF730FC0120FFF7A7FD194812
:1015D000FFF7E6FC11208407C4F83402164D2846B4
:1015E000FFF76AFB00224FF040712846FFF74CFDE1
:1015F000E06B20F47F00E063E06B40F4CC00E0633C
:101600000E4D2846FFF758FB00224FF4E0412846D4
:10161000FFF73AFD0A48FFF74FFB206B20F47F00ED
:1016200040F42A00206300F07BF80020C4F8000199
:1016300070BD000000B0710B103D80570300C05E0C
:10164000180000404FF08040816841F00101816046
:10165000704700000121044A814002EB10600268DB
:101660000A438A430260704708000040592110B5C0
:10167000880716228823C0F80011C0F80021C0F89E
:101680000031D0F80041002CF5D010BD06498A6920
:101690001202FCD40A2804D10D220A608A691202BF
:1016A000FCD40860704700000000074000B500F05F
:1016B00073FF03494868401C00D1486000BD00002A
:1016C0003C0000200D4A10B5002151600C4909680A
:1016D000B1FBF0F0401EB0F1807F03D309A000F011
:1016E000CBFAFEE74FF0E02460610F216017FFF7AF
:1016F000F2FE0020A0610720206110BD3C00002008
:10170000000000205365742073797374656D207434
:1017100069636B206572726F7221210A00000000FC
:1017200010B5FFF715FC0E4A4FF080439060D3F8D8
:10173000101201F00701022903D002F10C0050F849
:101740002100D3F8201201F00F01491CB0FBF1F089
:101750000449106008444900B0FBF1F0506010BD2E
:101760000000002020A107001A48016841F4700120
:1017700001601948C16C21F00F0141F00801C164FA
:101780004FF08040D0F8981241F48021C0F89812B0
:10179000D0F8081241F00201C0F808120F49D1F840
:1017A000042102F0F732C1F80421D1F8082102F037
:1017B000F732C1F80821D0F8081221F00201C0F870
:1017C00008124FF04020D0F8401121F0F001C0F88D
:1017D0004011704788ED00E000C000400010044058
:1017E00010B50A4C4FF47A724FF00061204600F0B9
:1017F0004BF8206840F0005020602120FFF760FE89
:10180000206840F08040206010BD000000010540CD
:1018100010B588B00446202217496846FEF767FDD8
:10182000164A174B9003944204D1D0F81402C0F327
:10183000022110E09C4204D1D0F81402C0F302311E
:1018400009E01049D0F814028C4202D1C0F30241E1
:1018500001E0C0F30251022903D05DF8210008B075
:1018600010BD944201D09C4202D1FFF70BFBF6E77A
:10187000FFF73AFBF3E70000F42500000000054005
:10188000000105400010054070B516460D4604469F
:10189000FFF7BEFF0023B6EB500F01D9022206E08E
:1018A000B0FBF6F2130E02D0591CB2FBF1F21D434D
:1018B000256062605B1C5A43B0FBF2F070BD000013
:1018C0000D4800B58168C1F30001002913D0012142
:1018D000816000F069FE094A90684FF47A71B0FBAC
:1018E000F1F301FB130028B902F11000016841F087
:1018F00001010160906800BD000105403C0000202E
:1019000010B50B4CE06910F4885F02D104E000F0E0
:1019100061F9A1694904FAD5A169204611F0710F56
:1019200005D0BDE810404FF4105100F09FB810BD35
:101930000000074010B52448FFF78CFE234C4FF4FD
:10194000E131204600F0B0F81421204600F038F9CB
:10195000A06820F01000A060A06840F02000A06007
:10196000606840F61101084360602420FFF7A8FD7D
:10197000FFF762FA014616A000F07EF9FFF764FA5D
:1019800001461AA000F078F9FFF766FA01461DA09B
:1019900000F072F9FFF76AFA014620A000F06CF936
:1019A000FFF770FA014623A000F066F9FFF79CFAF2
:1019B000014627A000F060F9FFF746FA0146BDE8AE
:1019C00010400AA000F058B91000000400000740C1
:1019D0000D0A434C4B5F4765744350554672657121
:1019E000203A202538640D0A00000000434C4B5F6C
:1019F00047657448434C4B46726571203A20253840
:101A0000640D0A00434C4B5F476574485854467256
:101A10006571203A202538640D0A0000434C4B5F65
:101A20004765744C585446726571203A20253864D5
:101A30000D0A0000434C4B5F47657450434C4B30DC
:101A400046726571203A202538640D0A00000000B6
:101A5000434C4B5F47657450434C4B314672657144
:101A6000203A202538640D0A000000004A0503D5FD
:101A700070228261082282610A0503D5426942F020
:101A8000010242618A0401D5064A82614A0401D5F5
:101A90001F224264090404D58021C16140F20F3144
:101AA00081637047010000012DE9FF4104463C4875
:101AB0000F4600250FC88DE80F003A492E464FF01B
:101AC00080408C4206D1D0F81412D0F82002C1F325
:101AD00001652AE034498C4206D1D0F81412D0F8BE
:101AE0002002C1F381652BE030498C4208D1D0F847
:101AF0001C12D0F83002C1F3016500F00F0621E09E
:101B00002B498C4208D1D0F81C12D0F83002C1F316
:101B10008165C0F3031615E026498C4208D1D0F840
:101B20001C12D0F83002C1F30175C0F3032609E09E
:101B300021498C4206D1D0F81C12D0F830028D0F0A
:101B4000C0F30336002020630320E060A0681B4937
:101B50000840A060E846012D02D1FFF7F9F9019095
:101B6000002F1AD058F82510761CB1FBF6F000EBC8
:101B70005700B0FBF7F0801EB0F5803F0AD3B1FBF1
:101B8000F6F000EBC700B0FBF7F06FF0010101EBDE
:101B9000101001E040F040506062BDE8FF8100009D
:101BA000C425000000000740001007400020074047
:101BB0000030074000400740005007400FFFF0FF93
:101BC000026A22F0FF020A430262416841F40061A6
:101BD0004160704710B51C480068C4B27F2C04D91E
:101BE000BDE8104019A000F047B821461CA000F045
:101BF00043F8582C15D00EDC1D48312C17D0322C50
:101C000019D01C48332C1AD0342C03D1016821F090
:101C10000201016010BD5A2C03D0782C01D07A2C1F
:101C2000F8D1FFF723FDBDE81040FFF70BBDBDE87D
:101C30001040FFF7D3BABDE81040FFF71FBB0168A3
:101C400041F00201E5E7000000000740696E76619F
:101C50006C696420636F6D6D616E640D0A00000035
:101C60007072657373203A2025630D0A000000002E
:101C700000000A404C0000200FB4054B10B503A92A
:101C8000044A029800F018F810BC5DF814FB00003C
:101C90007D2400002C00002002E008C8121F08C1AB
:101CA000002AFAD170477047002001E001C1121FDD
:101CB000002AFBD1704700002DE9FF4F8DB00F4681
:101CC0000546002606E025280BD0DDE90F129047D7
:101CD0006D1C761C28780028F5D111B03046BDE87F
:101CE000F08F0024A246A1460122EC4900E0044303
:101CF00015F8013F203B02FA03F00842F7D128789B
:101D00002A2810D06FF02F022878A0F1300109297D
:101D100014D80AEB8A0102EB410144F0020400EB03
:101D2000010A6D1CF0E701CF5FEA000A03D544F415
:101D30000054CAF1000A44F002046D1C28782E28D1
:101D400017D115F8010F44F004042A280ED06FF0C3
:101D50002F022878A0F1300109290AD809EB89015E
:101D600002EB410100EB01096D1CF2E757F8049BFF
:101D70006D1C28786C280FD006DC4C2817D06828FA
:101D80000DD06A2814D104E0742810D07A280FD11D
:101D90000DE044F400140AE044F4801401E044F43B
:101DA00040146978814202D104F580146D1C6D1CC9
:101DB0002A786E2A1FD00CDC632A31D004DC002A7A
:101DC0008BD0582A11D1A3E0642A68D0692A0CD19B
:101DD00065E0732A2ED004DC6F2A73D0702A04D1F8
:101DE0009BE0752A6FD0782A6ED01046DDE90F127D
:101DF0009047761C50E1C4F30250022806D0032815
:101E000009D0042801CF09D0066045E101CFF117C0
:101E1000C0E9006140E101CF06803DE106703BE191
:101E200017F8040B8DF8000000208DF80100EB4638
:101E3000012003E057F804BB4FF0FF3061074FF07B
:101E4000000102D40DE008F10101884649450FDA8E
:101E50008045F8DB1BF808100029F4D108E008F1F0
:101E6000010188468142FADB1BF808100029F6D1EF
:101E7000DDE90F23AAEB08008146214600F036F980
:101E8000304400EB080604E0DDE90F121BF8010BFB
:101E90009047B8F10108F7D221464846F7E00A21F9
:101EA000C4F302534FF0000B0891022B04D001CF72
:101EB000C117032B09D00AE0FF1D27F00707F7E839
:101EC000020108E032E01FE020E000B2C117042B5D
:101ED00001D140B2C117031E71F1000307DA4FF0C0
:101EE000000CD0EB0C006CEB01012D2302E023056C
:101EF00004D52B238DF82430012303E0E30701D020
:101F00002023F7E7984658E00A2110E010210EE060
:101F100010204FF0000B08900CE010214FF0000B48
:101F200044F004044FF00809089103E008214FF041
:101F3000000B0891C4F30253022B04D001CF0021FF
:101F4000032B06D006E0FF1D27F00707F7E8020184
:101F500003E080B2042B00D1C0B24FF00008230789
:101F60002BD5702A07D0DDF820C08CF0100C5CEA6D
:101F70000B0C05D00EE040238DF82430012308E03F
:101F800050EA010306D030238DF824308DF8252047
:101F900002239846DDF820C08CF0080C5CEA0B0C9C
:101FA0000BD150EA010301D1630706D530238DF828
:101FB00024304FF00108A9F10109582A04D038A2B1
:101FC0000B9208AA0A920BE03AA2F9E75B46089A3C
:101FD000FEF75CF90B9B9B5C0A9A521E0A921370E7
:101FE00050EA0102F2D10A98ADEB000000F1200B9B
:101FF000600702D524F4803401E04FF00109D9458F
:1020000002DDA9EB0B0000E0002000EB0B014144D6
:102010000890AAEB010AE00306D4DDE90F2321466C
:10202000504600F063F806444FF0000908E009A9A3
:1020300011F80900DDE90F12904709F10109761C3A
:10204000C145F4DBE0030CD5DDE90F232146504602
:1020500000F04CF8064404E0DDE90F123020904710
:10206000761C0899481E08900029F5DC08E00A98BB
:102070000A990078491C0A91DDE90F129047761CF5
:10208000BBF10001ABF1010BF1DC21465046DDE96B
:102090000F2300F019F806446D1C1BE60928010007
:1020A00030313233343536373839616263646566CE
:1020B0000000000030313233343536373839414290
:1020C00043444546000000002DE9F0410446002548
:1020D0001E461746880404D405E039462020B04740
:1020E0006D1C641EF9D52846BDE8F0812DE9F0414C
:1020F000044600251E469046C80301D5302700E05F
:102100002027880404D505E041463846B0476D1CB9
:10211000641EF9D52846BDE8F08130B54C1C6043FB
:102120004FF47A7590FBF5F0081A401C186009D03E
:10213000082801D908201860081A1060102803D850
:10214000186806E00120F6E710201060A1F11000E9
:102150001860081A4FF47A71401C484390FBF4F061
:1021600030BD000070B5FFF717FA4FF08045044608
:10217000D5F8F401C0B201283FD03CA0FFF77CFDA8
:10218000686840F2FF110843686021463BA0FFF7F2
:1021900073FDE00702D03FA0FFF76EFDA00702D558
:1021A00041A0FFF769FD600702D546A0FFF764FD77
:1021B000200702D548A0FFF75FFDE00602D54BA03F
:1021C000FFF75AFDA00602D54DA0FFF755FD6006AA
:1021D00002D551A0FFF750FD200602D554A0FFF70D
:1021E0004BFDE00502D557A0FFF746FDE00706D0FE
:1021F0000120FFF7CBF95AA032E05EA0BEE7A007AE
:1022000004D50220FFF7C2F95EA029E0600704D5DB
:102210000420FFF7BBF962A022E0200704D50820C4
:10222000FFF7B4F965A01BE0E00604D51020FFF726
:10223000ADF969A014E0A00604D52020FFF7A6F9A7
:102240006CA00DE0200604D58020FFF79FF971A057
:1022500006E0E00508D54FF48070FFF797F974A009
:10226000FFF70AFD002070BD7AA0F9E7504E203A32
:10227000204D343878494441450D0A005265736554
:102280007420536F75726365203C30782530385860
:102290003E0D0A003029504F52205265736574205C
:1022A000466C61670D0A000031294E524553455472
:1022B0002050696E20526573657420466C61670D0D
:1022C0000A00000032295744542052657365742077
:1022D000466C61670D0A000033294C565220526546
:1022E00073657420466C61670D0A00003429424F03
:1022F0004420526573657420466C61670D0A0000C6
:10230000352953797374656D205265736574204661
:102310006C6167200D0A0000362948524553455428
:1023200020526573657420466C6167200D0A0000B9
:10233000372943505520526573657420466C616798
:102340000D0A00003829435055204C6F636B75709F
:1023500020526573657420466C61670D0A000000A9
:10236000706F776572206F6E2066726F6D20504FB0
:10237000520D0A00504E203A204D343878474341E0
:10238000450D0A00706F776572206F6E2066726F60
:102390006D206E52455345542070696E0D0A000041
:1023A000706F776572206F6E2066726F6D20574474
:1023B000542052657365740D0A000000706F7765D4
:1023C00072206F6E2066726F6D204C5652205265DF
:1023D0007365740D0A000000706F776572206F6E70
:1023E0002066726F6D20424F442052657365740DF4
:1023F0000A000000706F776572206F6E2066726F42
:102400006D2053797374656D2052657365740D0A80
:1024100000000000706F776572206F6E2066726F2B
:102420006D204350552072657365740D0A000000DD
:10243000706F776572206F6E2066726F6D204350EB
:1024400055204C6F636B75702052657365740D0A6F
:1024500000000000706F776572206F6E2066726FEB
:102460006D20756E68616E646C652072657365744D
:1024700020736F757263650D0A00000010B5044685
:10248000FFF704F9204610BD0A4840680949103199
:102490000868C20707D020F00100086006480268FB
:1024A00082F0010202600878800702D50348FEF737
:1024B000E5BE70473C000020C049004000000A40D3
:1024C000FFF76EF8FEF764FFFFF734FAFFF788F9BD
:1024D000FFF748FE4FF47A70FFF7F4F8FFF70CF8B7
:1024E000FEF780F8FEF714FBFFF7CEFFFCE70000D5
:1024F00010B50446016810A0FFF7BEFB11A061688B
:10250000FFF7BAFB12A0A168FFF7B6FB13A0E168C2
:10251000FFF7B2FB14A02169FFF7AEFB15A06169BC
:10252000FFF7AAFB16A0A169FFF7A6FBE169BDE8CA
:10253000104016A0FFF7A0BB723020203D2030785D
:1025400025780A00723120203D20307825780A0055
:10255000723220203D20307825780A007233202006
:102560003D20307825780A00723132203D203078C5
:1025700025780A006C7220203D20307825780A00EA
:10258000706320203D20307825780A007073722017
:102590003D20307825780A0002484168491C416096
:1025A000704700003C00002005488168491C81609C
:1025B00081684EF66022914201D30021816070470C
:1025C0003C000020001BB70000000000008000005D
:1025D000001BB700001BB7000000000000800000D7
:1025E000001BB700001BB7000000000000800000C7
:1025F000001BB700001BB7000080000000000000B7
:102600000000000000000000102700000000000093
:10261000001BB7004445564943455F5365745478E1
:102620004D73675F52656D6F74655F4672616D656E
:10263000004445564943455F547800005C2600003D
:102640000000002050000000981C0000AC26000094
:102650005000002018080000A81C0000001BB70054
:102660000C000000001BB700001BB700008000003A
:102670000000000010270000000000000000000023
:1026800000000000001BB700000000000000000078
:10269000000000000000000000000000000000003A
:0C26A0000000000000000000000000002E
:0400000500000225D0
:00000001FF
